{
  "_format": "hh-sol-artifact-1",
  "contractName": "BuyMeACoffee",
  "sourceName": "contracts/BuyMeACoffee.sol",
  "abi": [
    {
      "inputs": [],
      "stateMutability": "nonpayable",
      "type": "constructor"
    },
    {
      "anonymous": false,
      "inputs": [
        {
          "indexed": true,
          "internalType": "address",
          "name": "from",
          "type": "address"
        },
        {
          "indexed": false,
          "internalType": "uint256",
          "name": "timestamp",
          "type": "uint256"
        },
        {
          "indexed": false,
          "internalType": "string",
          "name": "name",
          "type": "string"
        },
        {
          "indexed": false,
          "internalType": "string",
          "name": "message",
          "type": "string"
        }
      ],
      "name": "NewMemo",
      "type": "event"
    },
    {
      "anonymous": false,
      "inputs": [
        {
          "indexed": true,
          "internalType": "address",
          "name": "from",
          "type": "address"
        },
        {
          "indexed": false,
          "internalType": "uint256",
          "name": "timestamp",
          "type": "uint256"
        },
        {
          "indexed": false,
          "internalType": "address",
          "name": "newAddress",
          "type": "address"
        },
        {
          "indexed": false,
          "internalType": "string",
          "name": "message",
          "type": "string"
        }
      ],
      "name": "withdrawAddressChanged",
      "type": "event"
    },
    {
      "inputs": [
        {
          "internalType": "string",
          "name": "_name",
          "type": "string"
        },
        {
          "internalType": "string",
          "name": "_message",
          "type": "string"
        }
      ],
      "name": "buyCoffee",
      "outputs": [],
      "stateMutability": "payable",
      "type": "function"
    },
    {
      "inputs": [
        {
          "internalType": "string",
          "name": "_name",
          "type": "string"
        },
        {
          "internalType": "string",
          "name": "_message",
          "type": "string"
        }
      ],
      "name": "buyLargeCoffee",
      "outputs": [],
      "stateMutability": "payable",
      "type": "function"
    },
    {
      "inputs": [
        {
          "internalType": "address payable",
          "name": "_address",
          "type": "address"
        }
      ],
      "name": "changeWithdrawAddress",
      "outputs": [],
      "stateMutability": "nonpayable",
      "type": "function"
    },
    {
      "inputs": [],
      "name": "getMemos",
      "outputs": [
        {
          "components": [
            {
              "internalType": "address",
              "name": "from",
              "type": "address"
            },
            {
              "internalType": "uint256",
              "name": "timestamp",
              "type": "uint256"
            },
            {
              "internalType": "string",
              "name": "name",
              "type": "string"
            },
            {
              "internalType": "string",
              "name": "message",
              "type": "string"
            }
          ],
          "internalType": "struct BuyMeACoffee.Memo[]",
          "name": "",
          "type": "tuple[]"
        }
      ],
      "stateMutability": "view",
      "type": "function"
    },
    {
      "inputs": [],
      "name": "withdrawTips",
      "outputs": [],
      "stateMutability": "nonpayable",
      "type": "function"
    }
  ],
  "bytecode": "0x6080604052631717914960005534801561001857600080fd5b5033600160006101000a81548173ffffffffffffffffffffffffffffffffffffffff021916908373ffffffffffffffffffffffffffffffffffffffff16021790555033600260006101000a81548173ffffffffffffffffffffffffffffffffffffffff021916908373ffffffffffffffffffffffffffffffffffffffff160217905550610f97806100aa6000396000f3fe60806040526004361061004a5760003560e01c80631453671d1461004f578063204206e1146100785780633aaa74b214610094578063417f9ea9146100ab578063865c5172146100c7575b600080fd5b34801561005b57600080fd5b506100766004803603810190610071919061088d565b6100f2565b005b610092600480360381019061008d91906108b6565b610216565b005b3480156100a057600080fd5b506100a961039e565b005b6100c560048036038101906100c091906108b6565b610400565b005b3480156100d357600080fd5b506100dc61058a565b6040516100e99190610b4f565b60405180910390f35b600160009054906101000a900473ffffffffffffffffffffffffffffffffffffffff1673ffffffffffffffffffffffffffffffffffffffff163373ffffffffffffffffffffffffffffffffffffffff1614610182576040517f08c379a000000000000000000000000000000000000000000000000000000000815260040161017990610b91565b60405180910390fd5b80600260006101000a81548173ffffffffffffffffffffffffffffffffffffffff021916908373ffffffffffffffffffffffffffffffffffffffff1602179055503373ffffffffffffffffffffffffffffffffffffffff167fa3a209969e338ac4dacedccbd7e7db99bc89531af9693f05f7a202181573aa87428360405161020b929190610bd1565b60405180910390a250565b60003411610259576040517f08c379a000000000000000000000000000000000000000000000000000000000815260040161025090610bb1565b60405180910390fd5b600360405180608001604052803373ffffffffffffffffffffffffffffffffffffffff16815260200142815260200184815260200183815250908060018154018082558091505060019003906000526020600020906004020160009091909190915060008201518160000160006101000a81548173ffffffffffffffffffffffffffffffffffffffff021916908373ffffffffffffffffffffffffffffffffffffffff16021790555060208201518160010155604082015181600201908051906020019061032892919061076d565b50606082015181600301908051906020019061034592919061076d565b5050503373ffffffffffffffffffffffffffffffffffffffff167fc56140e05f516509ae28110e0f72e17558a7561630dad2647c3ae87d986e365c42848460405161039293929190610c0d565b60405180910390a25050565b600260009054906101000a900473ffffffffffffffffffffffffffffffffffffffff1673ffffffffffffffffffffffffffffffffffffffff166108fc479081150290604051600060405180830381858888f193505050506103fe57600080fd5b565b600054341015610445576040517f08c379a000000000000000000000000000000000000000000000000000000000815260040161043c90610b71565b60405180910390fd5b600360405180608001604052803373ffffffffffffffffffffffffffffffffffffffff16815260200142815260200184815260200183815250908060018154018082558091505060019003906000526020600020906004020160009091909190915060008201518160000160006101000a81548173ffffffffffffffffffffffffffffffffffffffff021916908373ffffffffffffffffffffffffffffffffffffffff16021790555060208201518160010155604082015181600201908051906020019061051492919061076d565b50606082015181600301908051906020019061053192919061076d565b5050503373ffffffffffffffffffffffffffffffffffffffff167fc56140e05f516509ae28110e0f72e17558a7561630dad2647c3ae87d986e365c42848460405161057e93929190610c0d565b60405180910390a25050565b60606003805480602002602001604051908101604052809291908181526020016000905b8282101561076457838290600052602060002090600402016040518060800160405290816000820160009054906101000a900473ffffffffffffffffffffffffffffffffffffffff1673ffffffffffffffffffffffffffffffffffffffff1673ffffffffffffffffffffffffffffffffffffffff1681526020016001820154815260200160028201805461064190610dd4565b80601f016020809104026020016040519081016040528092919081815260200182805461066d90610dd4565b80156106ba5780601f1061068f576101008083540402835291602001916106ba565b820191906000526020600020905b81548152906001019060200180831161069d57829003601f168201915b505050505081526020016003820180546106d390610dd4565b80601f01602080910402602001604051908101604052809291908181526020018280546106ff90610dd4565b801561074c5780601f106107215761010080835404028352916020019161074c565b820191906000526020600020905b81548152906001019060200180831161072f57829003601f168201915b505050505081525050815260200190600101906105ae565b50505050905090565b82805461077990610dd4565b90600052602060002090601f01602090048101928261079b57600085556107e2565b82601f106107b457805160ff19168380011785556107e2565b828001600101855582156107e2579182015b828111156107e15782518255916020019190600101906107c6565b5b5090506107ef91906107f3565b5090565b5b8082111561080c5760008160009055506001016107f4565b5090565b600061082361081e84610c77565b610c52565b90508281526020810184848401111561083b57600080fd5b610846848285610d92565b509392505050565b60008135905061085d81610f4a565b92915050565b600082601f83011261087457600080fd5b8135610884848260208601610810565b91505092915050565b60006020828403121561089f57600080fd5b60006108ad8482850161084e565b91505092915050565b600080604083850312156108c957600080fd5b600083013567ffffffffffffffff8111156108e357600080fd5b6108ef85828601610863565b925050602083013567ffffffffffffffff81111561090c57600080fd5b61091885828601610863565b9150509250929050565b600061092e8383610ac7565b905092915050565b61093f81610d5c565b82525050565b61094e81610d0e565b82525050565b600061095f82610cb8565b6109698185610cdb565b93508360208202850161097b85610ca8565b8060005b858110156109b757848403895281516109988582610922565b94506109a383610cce565b925060208a0199505060018101905061097f565b50829750879550505050505092915050565b60006109d482610cc3565b6109de8185610cec565b93506109ee818560208601610da1565b6109f781610e95565b840191505092915050565b6000610a0d82610cc3565b610a178185610cfd565b9350610a27818560208601610da1565b610a3081610e95565b840191505092915050565b6000610a48601983610cfd565b9150610a5382610ea6565b602082019050919050565b6000610a6b601d83610cfd565b9150610a7682610ecf565b602082019050919050565b6000610a8e601d83610cfd565b9150610a9982610ef8565b602082019050919050565b6000610ab1601a83610cfd565b9150610abc82610f21565b602082019050919050565b6000608083016000830151610adf6000860182610945565b506020830151610af26020860182610b31565b5060408301518482036040860152610b0a82826109c9565b91505060608301518482036060860152610b2482826109c9565b9150508091505092915050565b610b3a81610d52565b82525050565b610b4981610d52565b82525050565b60006020820190508181036000830152610b698184610954565b905092915050565b60006020820190508181036000830152610b8a81610a5e565b9050919050565b60006020820190508181036000830152610baa81610a81565b9050919050565b60006020820190508181036000830152610bca81610aa4565b9050919050565b6000606082019050610be66000830185610b40565b610bf36020830184610936565b8181036040830152610c0481610a3b565b90509392505050565b6000606082019050610c226000830186610b40565b8181036020830152610c348185610a02565b90508181036040830152610c488184610a02565b9050949350505050565b6000610c5c610c6d565b9050610c688282610e06565b919050565b6000604051905090565b600067ffffffffffffffff821115610c9257610c91610e66565b5b610c9b82610e95565b9050602081019050919050565b6000819050602082019050919050565b600081519050919050565b600081519050919050565b6000602082019050919050565b600082825260208201905092915050565b600082825260208201905092915050565b600082825260208201905092915050565b6000610d1982610d32565b9050919050565b6000610d2b82610d32565b9050919050565b600073ffffffffffffffffffffffffffffffffffffffff82169050919050565b6000819050919050565b6000610d6782610d6e565b9050919050565b6000610d7982610d80565b9050919050565b6000610d8b82610d32565b9050919050565b82818337600083830152505050565b60005b83811015610dbf578082015181840152602081019050610da4565b83811115610dce576000848401525b50505050565b60006002820490506001821680610dec57607f821691505b60208210811415610e0057610dff610e37565b5b50919050565b610e0f82610e95565b810181811067ffffffffffffffff82111715610e2e57610e2d610e66565b5b80604052505050565b7f4e487b7100000000000000000000000000000000000000000000000000000000600052602260045260246000fd5b7f4e487b7100000000000000000000000000000000000000000000000000000000600052604160045260246000fd5b6000601f19601f8301169050919050565b7f57697468647261772041646472657373204368616e6765642e00000000000000600082015250565b7f4c6172676520636f6666656520636f73747320302e3030332045544821000000600082015250565b7f596f7520646f206e6f74206f776e207468697320636f6e74726163742e000000600082015250565b7f63616e27742062757920636f6666656520666f72206672656521000000000000600082015250565b610f5381610d20565b8114610f5e57600080fd5b5056fea26469706673582212202e5104cd576e5f39bc1d4149e539e0c00f24ebd51218a81c276772c76e1d059f64736f6c63430008040033",
  "linkReferences": {},
  "deployedLinkReferences": {}
}